{
  "_format": "hh-sol-artifact-1",
  "contractName": "JokePortal",
  "sourceName": "contracts/JokePortal.sol",
  "abi": [
    {
      "inputs": [],
      "stateMutability": "payable",
      "type": "constructor"
    },
    {
      "anonymous": false,
      "inputs": [
        {
          "indexed": true,
          "internalType": "address",
          "name": "from",
          "type": "address"
        },
        {
          "indexed": false,
          "internalType": "uint256",
          "name": "timestamp",
          "type": "uint256"
        },
        {
          "indexed": false,
          "internalType": "string",
          "name": "message",
          "type": "string"
        }
      ],
      "name": "NewJoke",
      "type": "event"
    },
    {
      "inputs": [],
      "name": "getAllJokes",
      "outputs": [
        {
          "components": [
            {
              "internalType": "address",
              "name": "joker",
              "type": "address"
            },
            {
              "internalType": "string",
              "name": "message",
              "type": "string"
            },
            {
              "internalType": "uint256",
              "name": "timestamp",
              "type": "uint256"
            }
          ],
          "internalType": "struct JokePortal.Joke[]",
          "name": "",
          "type": "tuple[]"
        }
      ],
      "stateMutability": "view",
      "type": "function"
    },
    {
      "inputs": [],
      "name": "getTotalJokes",
      "outputs": [
        {
          "internalType": "uint256",
          "name": "",
          "type": "uint256"
        }
      ],
      "stateMutability": "view",
      "type": "function"
    },
    {
      "inputs": [
        {
          "internalType": "string",
          "name": "_message",
          "type": "string"
        }
      ],
      "name": "joke",
      "outputs": [],
      "stateMutability": "nonpayable",
      "type": "function"
    }
  ],
  "bytecode": "0x60806040526200003360405180606001604052806030815260200162000fe5603091396200003960201b620004a01760201c565b620001cd565b620000d98160405160240162000050919062000146565b6040516020818303038152906040527f41304fac000000000000000000000000000000000000000000000000000000007bffffffffffffffffffffffffffffffffffffffffffffffffffffffff19166020820180517bffffffffffffffffffffffffffffffffffffffffffffffffffffffff8381831617835250505050620000dc60201b60201c565b50565b60008151905060006a636f6e736f6c652e6c6f679050602083016000808483855afa5050505050565b600062000112826200016a565b6200011e818562000175565b93506200013081856020860162000186565b6200013b81620001bc565b840191505092915050565b6000602082019050818103600083015262000162818462000105565b905092915050565b600081519050919050565b600082825260208201905092915050565b60005b83811015620001a657808201518184015260208101905062000189565b83811115620001b6576000848401525b50505050565b6000601f19601f8301169050919050565b610e0880620001dd6000396000f3fe608060405234801561001057600080fd5b50600436106100415760003560e01c8063696ff25c1461004657806370eea42f146100645780639e599c0414610080575b600080fd5b61004e61009e565b60405161005b91906109eb565b60405180910390f35b61007e600480360381019061007991906107a5565b6101ef565b005b61008861044f565b6040516100959190610acf565b60405180910390f35b60606000805480602002602001604051908101604052809291908181526020016000905b828210156101e657838290600052602060002090600302016040518060600160405290816000820160009054906101000a900473ffffffffffffffffffffffffffffffffffffffff1673ffffffffffffffffffffffffffffffffffffffff1673ffffffffffffffffffffffffffffffffffffffff16815260200160018201805461014b90610c5f565b80601f016020809104026020016040519081016040528092919081815260200182805461017790610c5f565b80156101c45780601f10610199576101008083540402835291602001916101c4565b820191906000526020600020905b8154815290600101906020018083116101a757829003601f168201915b50505050508152602001600282015481525050815260200190600101906100c2565b50505050905090565b60003390506102336040518060400160405280601681526020017f2573206861732073656e642075732061206a6f6b65210000000000000000000081525082610539565b600060405180606001604052808373ffffffffffffffffffffffffffffffffffffffff16815260200184815260200142815250908060018154018082558091505060019003906000526020600020906003020160009091909190915060008201518160000160006101000a81548173ffffffffffffffffffffffffffffffffffffffff021916908373ffffffffffffffffffffffffffffffffffffffff16021790555060208201518160010190805190602001906102f292919061069a565b506040820151816002015550508073ffffffffffffffffffffffffffffffffffffffff167f8bd8a26db58e8d8c2f520500e46ebd47a1c9baa42722d81ed6c583635d21298e4284604051610347929190610aea565b60405180910390a26000655af3107a400090504781111561039d576040517f08c379a000000000000000000000000000000000000000000000000000000000815260040161039490610a8f565b60405180910390fd5b60003373ffffffffffffffffffffffffffffffffffffffff16826040516103c3906109d6565b60006040518083038185875af1925050503d8060008114610400576040519150601f19603f3d011682016040523d82523d6000602084013e610405565b606091505b5050905080610449576040517f08c379a000000000000000000000000000000000000000000000000000000000815260040161044090610aaf565b60405180910390fd5b50505050565b60006104956040518060400160405280601781526020017f5765206861766520256420746f74616c206a6f6b6573210000000000000000008152506000805490506105d5565b600080549050905090565b610536816040516024016104b49190610a0d565b6040516020818303038152906040527f41304fac000000000000000000000000000000000000000000000000000000007bffffffffffffffffffffffffffffffffffffffffffffffffffffffff19166020820180517bffffffffffffffffffffffffffffffffffffffffffffffffffffffff8381831617835250505050610671565b50565b6105d1828260405160240161054f929190610a2f565b6040516020818303038152906040527f319af333000000000000000000000000000000000000000000000000000000007bffffffffffffffffffffffffffffffffffffffffffffffffffffffff19166020820180517bffffffffffffffffffffffffffffffffffffffffffffffffffffffff8381831617835250505050610671565b5050565b61066d82826040516024016105eb929190610a5f565b6040516020818303038152906040527f9710a9d0000000000000000000000000000000000000000000000000000000007bffffffffffffffffffffffffffffffffffffffffffffffffffffffff19166020820180517bffffffffffffffffffffffffffffffffffffffffffffffffffffffff8381831617835250505050610671565b5050565b60008151905060006a636f6e736f6c652e6c6f679050602083016000808483855afa5050505050565b8280546106a690610c5f565b90600052602060002090601f0160209004810192826106c8576000855561070f565b82601f106106e157805160ff191683800117855561070f565b8280016001018555821561070f579182015b8281111561070e5782518255916020019190600101906106f3565b5b50905061071c9190610720565b5090565b5b80821115610739576000816000905550600101610721565b5090565b600061075061074b84610b3f565b610b1a565b90508281526020810184848401111561076857600080fd5b610773848285610c1d565b509392505050565b600082601f83011261078c57600080fd5b813561079c84826020860161073d565b91505092915050565b6000602082840312156107b757600080fd5b600082013567ffffffffffffffff8111156107d157600080fd5b6107dd8482850161077b565b91505092915050565b60006107f28383610968565b905092915050565b61080381610be1565b82525050565b61081281610be1565b82525050565b600061082382610b80565b61082d8185610ba3565b93508360208202850161083f85610b70565b8060005b8581101561087b578484038952815161085c85826107e6565b945061086783610b96565b925060208a01995050600181019050610843565b50829750879550505050505092915050565b600061089882610b8b565b6108a28185610bbf565b93506108b2818560208601610c2c565b6108bb81610d20565b840191505092915050565b60006108d182610b8b565b6108db8185610bd0565b93506108eb818560208601610c2c565b6108f481610d20565b840191505092915050565b600061090c603483610bd0565b915061091782610d31565b604082019050919050565b600061092f602783610bd0565b915061093a82610d80565b604082019050919050565b6000610952600083610bb4565b915061095d82610dcf565b600082019050919050565b600060608301600083015161098060008601826107fa565b5060208301518482036020860152610998828261088d565b91505060408301516109ad60408601826109b8565b508091505092915050565b6109c181610c13565b82525050565b6109d081610c13565b82525050565b60006109e182610945565b9150819050919050565b60006020820190508181036000830152610a058184610818565b905092915050565b60006020820190508181036000830152610a2781846108c6565b905092915050565b60006040820190508181036000830152610a4981856108c6565b9050610a586020830184610809565b9392505050565b60006040820190508181036000830152610a7981856108c6565b9050610a8860208301846109c7565b9392505050565b60006020820190508181036000830152610aa8816108ff565b9050919050565b60006020820190508181036000830152610ac881610922565b9050919050565b6000602082019050610ae460008301846109c7565b92915050565b6000604082019050610aff60008301856109c7565b8181036020830152610b1181846108c6565b90509392505050565b6000610b24610b35565b9050610b308282610c91565b919050565b6000604051905090565b600067ffffffffffffffff821115610b5a57610b59610cf1565b5b610b6382610d20565b9050602081019050919050565b6000819050602082019050919050565b600081519050919050565b600081519050919050565b6000602082019050919050565b600082825260208201905092915050565b600081905092915050565b600082825260208201905092915050565b600082825260208201905092915050565b6000610bec82610bf3565b9050919050565b600073ffffffffffffffffffffffffffffffffffffffff82169050919050565b6000819050919050565b82818337600083830152505050565b60005b83811015610c4a578082015181840152602081019050610c2f565b83811115610c59576000848401525b50505050565b60006002820490506001821680610c7757607f821691505b60208210811415610c8b57610c8a610cc2565b5b50919050565b610c9a82610d20565b810181811067ffffffffffffffff82111715610cb957610cb8610cf1565b5b80604052505050565b7f4e487b7100000000000000000000000000000000000000000000000000000000600052602260045260246000fd5b7f4e487b7100000000000000000000000000000000000000000000000000000000600052604160045260246000fd5b6000601f19601f8301169050919050565b7f547279696e6720746f207769746864726177206d6f7265206d6f6e657920746860008201527f616e2074686520636f6e7472616374206861732e000000000000000000000000602082015250565b7f4661696c656420746f207769746864726177206d6f6e65792066726f6d20636f60008201527f6e74726163742e00000000000000000000000000000000000000000000000000602082015250565b5056fea264697066735822122026c52d4f48f21bd398b7a85e7544c47aaa497f19dd1384afa4bbea4d513b0ded64736f6c634300080400334920616d206120636f6e74726163742074686174206d616b65732066756e6e79206a6f6b657320706f737369626c652e",
  "linkReferences": {},
  "deployedLinkReferences": {}
}